{
    "contractName": "Transaction",
    "abi": [
        {
            "constant": true,
            "inputs": [
                {
                    "name": "",
                    "type": "address"
                }
            ],
            "name": "map",
            "outputs": [
                {
                    "name": "",
                    "type": "uint256"
                }
            ],
            "payable": false,
            "stateMutability": "view",
            "type": "function",
            "signature": "0xb721ef6e"
        },
        {
            "constant": false,
            "inputs": [
                {
                    "name": "reciever",
                    "type": "address"
                },
                {
                    "name": "amount",
                    "type": "uint256"
                }
            ],
            "name": "makepayment",
            "outputs": [],
            "payable": false,
            "stateMutability": "nonpayable",
            "type": "function",
            "signature": "0x8e08181d"
        },
        {
            "constant": true,
            "inputs": [
                {
                    "name": "person",
                    "type": "address"
                }
            ],
            "name": "getamount",
            "outputs": [
                {
                    "name": "",
                    "type": "uint256"
                }
            ],
            "payable": false,
            "stateMutability": "view",
            "type": "function",
            "signature": "0xb4cef28d"
        }
    ],
    "bytecode": "0x608060405234801561001057600080fd5b506102a9806100206000396000f3fe608060405260043610610057576000357c0100000000000000000000000000000000000000000000000000000000900463ffffffff1680638e08181d1461005c578063b4cef28d146100b7578063b721ef6e1461011c575b600080fd5b34801561006857600080fd5b506100b56004803603604081101561007f57600080fd5b81019080803573ffffffffffffffffffffffffffffffffffffffff16906020019092919080359060200190929190505050610181565b005b3480156100c357600080fd5b50610106600480360360208110156100da57600080fd5b81019080803573ffffffffffffffffffffffffffffffffffffffff16906020019092919050505061021d565b6040518082815260200191505060405180910390f35b34801561012857600080fd5b5061016b6004803603602081101561013f57600080fd5b81019080803573ffffffffffffffffffffffffffffffffffffffff169060200190929190505050610265565b6040518082815260200191505060405180910390f35b806000803373ffffffffffffffffffffffffffffffffffffffff1673ffffffffffffffffffffffffffffffffffffffff16815260200190815260200160002060008282540392505081905550806000808473ffffffffffffffffffffffffffffffffffffffff1673ffffffffffffffffffffffffffffffffffffffff168152602001908152602001600020600082825401925050819055505050565b60008060008373ffffffffffffffffffffffffffffffffffffffff1673ffffffffffffffffffffffffffffffffffffffff168152602001908152602001600020549050919050565b6000602052806000526040600020600091509050548156fea165627a7a723058207abb07a5f1005175522e699edd99282ff80a52fddc6d83813ef70a137fb087850029",
    "source": "pragma solidity >=0.4.22 <0.9.0;\n\n\ncontract Transaction {\n   mapping(address => uint) public map;\n\n   function makepayment(address reciever,uint amount) public {\n     map[msg.sender]-=amount;\n     map[reciever]+=amount;\n   }\n   function getamount(address person)  public view returns(uint){\n    return map[person];\n   }\n}\n",
    "sourcePath": "C:/Users/gaura/OneDrive/Desktop/project/THF-Bank/backend/contracts/Transaction.sol",
    "compiler": {
        "name": "solc",
        "version": "0.5.0+commit.1d4f565a.Emscripten.clang"
    },
    "schemaVersion": "3.0.1",
    "updatedAt": "2022-11-24T19:09:00.119Z",
    "devdoc": {
        "methods": {}
    },
    "userdoc": {
        "methods": {}
    }
}